:020000040000fa
:080000000001040000000000f3
:020000040000fa
:10020000af03210080792200000188000000000077
:10021000050007000c000700780302000000000042
:100220000040da000000fe004440a9000000200069
:100230000000e0000300320000002000a001880060
:100240004440a80000000600e0cb20000100200090
:100250001600370062004000e080480091018800ed
:100260009001ba0062004000e080480091018800df
:100270009002ba0062004000e08048000002eb00fb
:100280006028e10005003a008301e900070033001f
:10029000038009000059eb00040037006128e100e9
:1002a000010032000082eb00050007009101880088
:1002b0001001ba000200e000e6ff3a00000005006d
:1002c000910188008002780062004000e0804800d0
:1002d0003559ba008301e900080032002559ba00f7
:1002e0008301e900050032000400e000f4ff320061
:1002f00015d9ba008301e900f1ff3a0000000600b9
:10030000889fbe008a9fbe00010578000100e000c2
:100310000400350008003c000000e000200032002e
:100320000500370060001000e080180002003b006c
:1003300001f02c001a0037000004be006011b80064
:100340006b0920000982cf00020039000882cf002b
:100350000441b000694252000e00320008003b0028
:1003600082817100610164008904d1000884d30096
:100370008b05e8000442e800f9ff3a000500370069
:100380000804440089844c008b05e9000442e9001c
:10039000fbff3a00830007000af0a70001f0a0006d
:1003a0004f05be004f04be0000000600889fbe003f
:1003b0008a9fbe008c1f7800a0000700a7003300b2
:1003c00003866c006450e1002e0032006420e100de
:1003d000330032006150e1002f0032006120e10063
:1003e0003100320085855500eb07b0000900200080
:1003f00008042000050037000804440089844c00ec
:100400000a0031000603430087834b0000015300bc
:1004100081815b00f8ff33000203be000800a000ea
:100420000804440089844c00f6ff3900c639dd0019
:100430008301730001003200130020008904d10001
:100440000884d3000998a300050032000800a70023
:100450000300a0008904d1000884d3008b05e800c4
:100460008904d1000884d3000001eb000281d2008e
:100470004c00070001f0a1000cf0a70001f0a00063
:100480007f0037006420e100810032000801be00d7
:100490000200be00f7ff37006120e1007c0032005f
:1004a0006000b800f3ff37000000200001f82700cb
:1004b000f0ff37000001be00780007000470a700bd
:1004c00003f0a1006509b100160032000d003500ef
:1004d0006828e10006003500f0ff2f00f1ff27003b
:1004e0000300e00013003b000100280000000500ad
:1004f00000004000818048008502e900fcff3a00ce
:1005000008003700f88f420002003c008000eb003a
:10051000000005008100d1000080d3008502e800c2
:10052000fcff3a000300e00002003b006000100006
:10053000e0801800000006000001be005700070020
:100540000470a70003f0a10003f8a30013003a0011
:100550006509b10010003200090035006928e1008a
:1005600002003500010028000000050000004000e6
:10057000818048008502e900fcff3a000000060087
:10058000f88f4200050035008100d1000080d300c3
:100590008502e800fcff3a00000006008000eb0046
:1005a0000000050081002000618055000b003d0027
:1005b0000b00200061fe2f000100e1001d0034004f
:1005c00082817100610164008904d1000884d30034
:1005d0000000e800faff3a007100200061006400aa
:1005e0000300700002006000090032006104440052
:1005f000e0844c000988a500050032008b05e80066
:100600006808e10002003a008904d1000884d300a0
:10061000f20f20000258e10005003d00c75ddd003b
:10062000f907b20089807500080078000000060014
:100630000bf827008b007800000005000004be00c6
:10064000160007000003be000405be000200be0045
:1006500012000700844f7500000006000200be0073
:100660006450e100050036006420e100020036001d
:100670000968a30001003a000800be000160a00064
:100680004f0678004f05be004f04be000000060074
:10069000f0ff2f00f1ff2700f9ff3700c70ade0047
:1006a000f107b200f50fb20008003200e1cf4200be
:1006b000020032000170a00024000500810f7000cc
:1006c000010032000408050044000500810f70009d
:1006d00002003a00140005008502e9000000400015
:1006e00081c04800fcff3b000170a0002400050011
:1006f0000400fa00881f78006000b800008fbe0078
:10070000430007000040eb00360107000000eb004b
:10071000ef0007008000780040062000808f500026
:100720001200340070002000e9000700800078000b
:1007300040062000808f50000c0034000000eb00c9
:10074000e30007000004780070002000e0000700cc
:10075000800f540005003400c0e02f00170407008c
:10076000401f2000410407001c0037000000eb0080
:10077000d70007008000780040062000808f5000de
:100780001200340070002000d100070080007800c3
:1007900040062000808f50000c0034000000eb0069
:1007a000cb0007000004780070002000c80007009c
:1007b000800f540005003d00401f2000ff0307008c
:1007c000c0e02f0029040700040037004006200085
:1007d000fa03070040062000240407006000b80068
:1007e000008fbe0004003700100020000100200030
:1007f0001e0f40005e974800f0342c0001002000de
:10080000be0f1000ae8f1800f7ff3400bfff370097
:100810000000fa00c4c2a900c4e2a900c522a900d0
:10082000c582a900c542a900c5a2a900c5c2a900e8
:10083000c5e2a900c0c2a900c0e2a900c122a90066
:10084000c182a900c142a900c1a2a900c1c2a900d8
:10085000c1e2a900d022a900cc22a900d042a9005f
:10086000cc42a900e2e2a900e302a900e802a90043
:10087000e822a900dee2a900df02a900e402a90043
:10088000e422a900e202a900de02a900d602a90022
:10089000d622a900d642a900d662a900d682a90014
:1008a000d6a2a900d6c2a900d6e2a900d202a90008
:1008b000d222a900d242a900d262a900d282a90004
:1008c000d2a2a900d2c2a900d2e2a900d1a2a90055
:1008d000cda2a900e842a900e862a900e442a9006b
:1008e000e462a900de22a800dec2a800e4c2a800db
:1008f000e4e2a800e502a800e522a800d302a800cf
:10090000d322a800d342a800d362a800d382a800b3
:10091000d3a2a800d3c2a800d3e2a8000080fa00a6
:10092000000006002800fa00889fbe008a1f780099
:100930000000eb00300798000000eb002007980053
:10094000100037003e00900021f52000000040001c
:10095000810040000000eb00800878003e0090001d
:10096000e800470000004000000040000101400096
:100970006000b8000089be003e0090000000e80062
:10098000300798003e009000e70f5000edff340064
:10099000290037000000eb003007980020003700e6
:1009a0003e0590003e009000e80047000000400037
:1009b00000004000010040001004be003e00900016
:1009c00043000700cf80de00080140008981480015
:1009d000e80047000a004500000040000100400018
:1009e0000288be006000b800008fbe00040037001f
:1009f00010002000010020001e0f40005e974800fc
:100a0000703e200001002000be0f1000ae8f1800c5
:100a1000f7ff34003e0090000000e8003007980027
:100a20003e009000e70f5000ddff34002e009000e4
:100a30000000e80020079800ae009000300620007b
:100a4000808f5000d3ff34000000eb003007980087
:100a5000180037003e0590003e009000e800470077
:100a60000000400000004000010040001000be00f7
:100a700023fe07000004be002e009000cf80de00a1
:100a80001ffe07000001be000800be0047fe070071
:100a900088fe07000001780021f520000a004500cb
:100aa00001004000020878003e0090000000e800cd
:100ab000300798003e009000e70f5000e5ff34003b
:100ac0004f0578004f04be000080fa0000000600c9
:100ad0000400fa00000f7800700020009e0f100044
:100ae000030036000000eb00100798000a003700f2
:100af0001e00780021f32000000040006081780093
:100b00001e00780021f42000000040006080780082
:100b100000015100120798001e0090000080fa00aa
:100b2000000006000600fa00100798001e00900062
:100b3000e70f5000030036000000eb00200798008c
:100b4000150037001e00900021f320000000400037
:100b5000608178001e00900021f420000000400019
:100b600060807800000151001e00900021f52000f7
:100b70000000400060807800000f51001e00e0007f
:100b8000030034001e0078002007980002003700a0
:100b90000000eb00200798002e0090000080fa0073
:100ba000000006000400fa00000f7800700020002a
:100bb0009e0f1000030036000000eb0010079800a5
:100bc000050037001e00780021f3200000004000df
:100bd00060807800100798001e0090000080fa00e6
:100be000000006000200fa00004f780010c0b300b9
:100bf0009e4f100004003a002180200010c0b30076
:100c00008048780003003700218020000040eb007e
:100c1000804878000000eb00001588000000eb0021
:100c2000101588000000eb00201588000000eb0084
:100c300030158800a802a800a822a800a842a90090
:100c4000a862a900a882a900a8a2a900a8c2a90018
:100c5000a8e2a900a902a900a922a900a942a90005
:100c6000a962a900a982a900a9a2a900a9c2a900f4
:100c7000a9e2a900aa02a900aa22a900aa42a800e2
:100c8000aa62a800aa82a800aaa2a900aac2a900d2
:100c9000aae2a900ab02a900ab22a900ab42a900bd
:100ca000ab62a900ab82a900aba2a900abc2a900ac
:100cb000abe2a900112a200091407800c0cfb30018
:100cc00000c06000a1e2b700a042a800012a2000f5
:100cd0009140780000ceb30000c07000a0e2b700e1
:100ce000212a20009140780030ccb30000c0600081
:100cf0000034a000a2e2b700a342a800512a2000bd
:100d00009140780000ceb30000c060000004a00055
:100d1000a5e2b70020802000104078000004e00029
:100d200007003200412a20009140780000ccb30037
:100d300000c060003041b300a4e2b70007003700f4
:100d4000412a20009140780000ccb30000c0600030
:100d500071c2b30001407000a4e2b7008560a90031
:100d60008d60a800a1e2a80020802000104078003b
:100d70000004e00005003a0000000000817b8000d4
:100d800000032000808f5000fbff36000080fa0037
:100d900000000600809fbe00829fbe003400f80065
:100da00000c0b300a00188000c00fa000180200000
:100db0000040eb0080487800118020000040eb00ec
:100dc000804878008560a9002080200010407800cd
:100dd0000004e0002d00320000282000000f780001
:100de000727b80001e00780010007800800178007f
:100df00061802000020041000100400003087800eb
:100e00001e8fe800727b80001e00780010007800c2
:100e10008001780061802000020041000100400054
:100e20000020b000030878001e8fe800727b80006d
:100e30001e0078001000780080017800618020009a
:100e4000020041008100400000402000008040007e
:100e5000030878001e8fe800707b80000000e80027
:100e6000707b8800717b8000f00f2000808f500025
:100e70009a0136000000eb00707b88001180200092
:100e800010c0b3008048780094013700c0012000f2
:100e900050158800212a20009140780030ccb30002
:100ea00000c060000034a000a2e2b700412a200088
:100eb0009140780000ccb30000c0600071c2b30064
:100ec00001407000a4e2b70040802000904078000c
:100ed000d0c3b30080cf50000f003a00c00f2000f5
:100ee00050158800212a20009140780030ccb300b2
:100ef00000c060004041b300a2e2b700412a2000d8
:100f00009140780000ccb30000c060003041b300d5
:100f1000a4e2b700620037004080200090407800d3
:100f2000e0c3b30080cf50002d003a00212a2000fa
:100f30009140780030ccb30000c060000044a000b5
:100f4000a2e2b700412a20009140780000ccb30013
:100f500000c060007041b300a4e2b7003080200000
:100f6000104078000080fb00500798005e00900061
:100f7000e10f500011003200de009000e18f5000c0
:100f800004003c005e0090000000e0000800320019
:100f900043003700de009000e28f50000a0032006c
:100fa0005e009000e30f50000a0032003c00370062
:100fb000c01121005015880039003700c0212200df
:100fc0005015880036003700c041240050158800b5
:100fd00033003700c08128005015880030003700ea
:100fe0004080200010407800e24f50002c003a0072
:100ff000212a20009140780030ccb30000c060006e
:101000000044a000a2e2b700412a200091407800ed
:1010100000ccb30000c060007041b300a4e2b70090
:1010200030802000104078000080fb0040079800ce
:10103000ce009000e18f5000110032004e00900071
:10104000e10f500004003c00ce0090000100e000e1
:1010500008003200120037004e009000e20f5000ee
:101060000a003200ce009000e38f50000a003200e8
:101070000b003700c0112100501588000800370010
:10108000c02122005015880005003700c04124000f
:101090005015880002003700c081280050158800d4
:1010a00000282000000f7800727b80001e0078006e
:1010b000100078008001780061802000020041006b
:1010c00001004000030878001e8fe800727b80005a
:1010d0001e007800100078008001780061802000f8
:1010e00002004100010040000020b0000308780029
:1010f0001e8fe800727b80001e00780010007800d0
:1011000080017800618020000200410081004000e1
:101110000040200000804000030878001e8fe80097
:10112000707b80000000e800707b8800717b80008d
:10113000f00f2000808f5000020036000000eb000e
:10114000707b88004080200090407800e0c3b300ae
:1011500080cf500026003a00807b80000000e8002d
:10116000807b8800817b800010032000808f5000ee
:10117000020036000000eb00807b8800827b80004c
:101180001e007800100078008001780061e02000e7
:101190000200410001004000030878001e8fe800b3
:1011a000827b80001e0078001000780080017800ab
:1011b00061e0200002004100010040004006b00054
:1011c000030878001e8fe800827b80001e007800f4
:1011d000100078008001780061e0200002004100ea
:1011e00001004000800cb00003087800a600370022
:1011f0004080200090407800f0c3b30080cf5000c2
:1012000049003a0030802000104078000080fb0048
:10121000300798003e009000e10f50001b003200a4
:10122000be009000e18f500004003c003e009000a2
:101230000000e0000800320093003700be0090007c
:10124000e28f50001e0032003e009000e30f50007d
:10125000280032008c0037001e0078001000780053
:101260008000780020f32000010878001e8fe8003d
:101270001e007800100078008000780020f3200025
:1012800041009800e2e2a8007f0037001e007800cd
:10129000100078008000780020f3200011009800f2
:1012a0001e8fe8001e007800100078008000780093
:1012b00020f3200051009800e302a80072003700dc
:1012c0001e007800100078008000780020f32000d5
:1012d000210098001e8fe8001e00780010007800a2
:1012e0008000780020f3200061009800e802a80048
:1012f000650037001e00780010007800800078003c
:1013000020f32000310098001e8fe8001e007800b6
:10131000100078008000780020f320007100980011
:10132000e822a800580037004080200010407800d4
:10133000e34f500054003a00308020001040780005
:101340000080fb0020079800ae009000e18f500065
:101350001e0032002e009000e10f500004003c00ff
:10136000ae0090000100e0000800320046003700a7
:101370002e009000e20f500024003200ae009000da
:10138000e38f5000310032003f0037001e0078002c
:10139000100078008000780020f420000108780018
:1013a0001e8fe8001e007800100078008000780092
:1013b00020f4200041009800e2e2a90031802000e2
:1013c00010c0b300804878002f0037001e0078005e
:1013d000100078008000780020f4200011009800b0
:1013e0001e8fe8001e007800100078008000780052
:1013f00020f4200051009800e302a9003180200071
:1014000020c0b300804878001f0037001e0078001d
:10141000100078008000780020f42000210098005f
:101420001e8fe8001e007800100078008000780011
:1014300020f4200061009800e802a900318020001b
:1014400030c0b300804878000f0037001e007800dd
:10145000100078008000780020f42000310098000f
:101460001e8fe8001e0078001000780080007800d1
:1014700020f4200071009800e822a90031802000ab
:101480000040eb0080487800408020001040780049
:10149000304798000040eb0020479800f0c3b300ad
:1014a000be40900080cf50000200360010c0b30054
:1014b000204798003e4090008040e8004080200097
:1014c00001487800ae4090000104e00003003200c3
:1014d000418020000040eb0080487800018020001f
:1014e00010c0b300804878000080fa003400f90092
:1014f0004f01be004f00be00004006000000fa0091
:1015000000802000104078000080fb000080fa007e
:10151000000006000000fa00108020001040780053
:101520000080fb000080fa00000006000000fa00c6
:10153000a1e2a8000080fa00000006000000fa0006
:10154000a1e2a9000080fa000000060000a0fe0051
:101550003400f800881f780008c0b300a801880094
:101560004f0478000200fa0086c0a900107b8000ba
:101570000000e0000c003400307b80000000e80038
:10158000307b8800507b80000000e900507b8800a1
:10159000507b80000000e0000e003d003000200085
:1015a000507b88000b003700307b80000000e90092
:1015b000307b8800507b80000000e800507b880072
:1015c000507b8000e30f5000020034000000eb006d
:1015d000507b8800507b8000000f78001e00780050
:1015e000e10f5000130032001e007800e10f5000a0
:1015f00004003c001e0078000000e00008003200fb
:101600001a0037001e007800e20f50000e00320072
:101610001e007800e30f5000100032001300370066
:10162000d602a900d622a800d642a900d662a800f8
:101630000e003700d602a900d622a800d642a80084
:10164000d662a90009003700d602a800d622a90058
:10165000d642a800d662a90004003700d602a8002e
:10166000d622a900d642a900d662a8000080fa00be
:101670003400f9000080fe000040060000a0fe00db
:101680003400f800881f780008c0b300a801880063
:101690004f0478000200fa0086a0a900207b800099
:1016a0000000e0000c003d00407b80000000e900ed
:1016b000407b8800607b80000000e900607b880040
:1016c000607b80000000e0000e003d003000200044
:1016d000607b88000b003700407b80000000e80042
:1016e000407b8800607b80000000e800607b880011
:1016f000607b8000e30f5000020034000000eb002c
:10170000607b8800607b8000000f78001e007800fe
:10171000e10f5000130032001e007800e10f50006e
:1017200004003c001e0078000000e00008003200c9
:101730001a0037001e007800e20f50000e00320041
:101740001e007800e30f5000100032001300370035
:10175000d682a900d6a2a800d6c2a900d6e2a800c7
:101760000e003700d682a900d6a2a800d6c2a800d3
:10177000d6e2a90009003700d682a800d6a2a900a7
:10178000d6c2a800d6e2a90004003700d682a8007d
:10179000d6a2a900d6c2a900d6e2a8000080fa000d
:1017a0003400f9000080fe00004006000000fa004e
:1017b00017fc07000080fa00000006000400fa0091
:1017c000000f78001e00e00006003a0021e1a900a9
:1017d000d602a900d622a900d642a900d662a90045
:1017e0002000370021e1a9001e007800107b88004e
:1017f0000000eb00000988000112200091407800f1
:1018000000c3b30000c0700020e1b7000000eb008f
:10181000c00888001e017800120798001e00900082
:101820000000e00003003d001e0190000201ea00fc
:10183000120798001e0190006110b900b0fa07006d
:101840000001be000000200011762400d7fa070036
:1018500039fb0700e008880086c0a9008ec0a800f8
:1018600021e1a8000080fa00000006000400fa0050
:10187000000f78001e00e00006003a001fe1a900fa
:10188000d682a900d6a2a900d6c2a900d6e2a90094
:10189000200037001fe1a9001e007800207b88008f
:1018a0000000eb00f0088800e11120009140780072
:1018b00000c3b30000c070001ee1b7000000eb00e1
:1018c000a00888001e017800120798001e009000f2
:1018d0000000e00003003d001e0190000201ea004c
:1018e000120798001e0190006110b90084fa0700e9
:1018f0000001be000000200011762400abfa0700b2
:101900000dfb0700d008880086a0a9008ea0a800c3
:101910001fe1a8000080fa00000006000000fa00a5
:10192000307b80000080fa00000006000200fa0010
:10193000000f78001027fc001e007800307b880024
:101940000200fc000080fa00000006000000fa001f
:10195000407b80000080fa00000006000200fa00d0
:10196000000f78001027fc001e007800407b8800e4
:0c1970000200fc000080fa0000000600ed
:020000040000fa
:0200000401f009
:04000000e6ff000017
:020000040000fa
:0200000401f009
:04000400ff7f00007a
:020000040000fa
:0200000401f009
:040008007fff000076
:020000040000fa
:0200000401f009
:04001400ffff0000ea
:020000040000fa
:10000800dc0c0000dc0c0000dc0c0000dc0c000048
:10001800dc0c0000dc0c0000dc0c0000dc0c000038
:10002800dc0c0000dc0c0000dc0c0000dc0c000028
:10003800dc0c0000dc0c0000dc0c0000dc0c000018
:10004800dc0c0000dc0c0000dc0c0000ca06000020
:10005800dc0c0000dc0c0000dc0c0000dc0c0000f8
:10006800dc0c0000dc0c0000dc0c0000dc0c0000e8
:10007800dc0c00003e0b0000a60a0000dc0c0000af
:10008800dc0c0000dc0c0000dc0c0000dc0c0000c8
:10009800dc0c0000dc0c0000dc0c0000dc0c0000b8
:1000a800dc0c0000dc0c0000dc0c0000dc0c0000a8
:1000b800dc0c0000dc0c0000dc0c0000dc0c000098
:1000c800dc0c0000dc0c0000dc0c0000dc0c000088
:1000d800dc0c0000dc0c0000dc0c0000dc0c000078
:1000e800dc0c0000dc0c0000dc0c0000dc0c000068
:0800f800dc0c0000dc0c000030
:020000040000fa
:10010800dc0c0000dc0c0000dc0c0000dc0c000047
:10011800dc0c0000dc0c0000dc0c0000dc0c000037
:10012800dc0c0000dc0c0000dc0c0000dc0c000027
:10013800dc0c0000dc0c0000dc0c0000dc0c000017
:10014800dc0c0000dc0c0000dc0c0000ca0600001f
:10015800dc0c0000dc0c0000dc0c0000dc0c0000f7
:10016800dc0c0000dc0c0000dc0c0000dc0c0000e7
:10017800dc0c00003e0b0000a60a0000dc0c0000ae
:10018800dc0c0000dc0c0000dc0c0000dc0c0000c7
:10019800dc0c0000dc0c0000dc0c0000dc0c0000b7
:1001a800dc0c0000dc0c0000dc0c0000dc0c0000a7
:1001b800dc0c0000dc0c0000dc0c0000dc0c000097
:1001c800dc0c0000dc0c0000dc0c0000dc0c000087
:1001d800dc0c0000dc0c0000dc0c0000dc0c000077
:1001e800dc0c0000dc0c0000dc0c0000dc0c000067
:0801f800dc0c0000dc0c00002f
:020000040000fa
:10197c00520f000010000000000000006e0f00006d
:10198c000400000002000000000000000000000045
:10199c00000800005207000000000000620f000069
:0c19ac000c000000000000000000000023
:020000040000fa
:0419b8000000fe002d
:00000001FF
